{
  "_format": "hh-sol-artifact-1",
  "contractName": "MemePiToken",
  "sourceName": "contracts/MemePiToken.sol",
  "abi": [
    {
      "inputs": [
        {
          "internalType": "address",
          "name": "_marketingWallet",
          "type": "address"
        }
      ],
      "stateMutability": "nonpayable",
      "type": "constructor"
    },
    {
      "anonymous": false,
      "inputs": [
        {
          "indexed": true,
          "internalType": "address",
          "name": "owner",
          "type": "address"
        },
        {
          "indexed": true,
          "internalType": "address",
          "name": "spender",
          "type": "address"
        },
        {
          "indexed": false,
          "internalType": "uint256",
          "name": "value",
          "type": "uint256"
        }
      ],
      "name": "Approval",
      "type": "event"
    },
    {
      "anonymous": false,
      "inputs": [
        {
          "indexed": true,
          "internalType": "address",
          "name": "account",
          "type": "address"
        },
        {
          "indexed": false,
          "internalType": "bool",
          "name": "isExcluded",
          "type": "bool"
        }
      ],
      "name": "ExcludedFromFees",
      "type": "event"
    },
    {
      "anonymous": false,
      "inputs": [
        {
          "indexed": true,
          "internalType": "address",
          "name": "from",
          "type": "address"
        },
        {
          "indexed": true,
          "internalType": "address",
          "name": "to",
          "type": "address"
        },
        {
          "indexed": false,
          "internalType": "uint256",
          "name": "amount",
          "type": "uint256"
        }
      ],
      "name": "MarketingFeeCollected",
      "type": "event"
    },
    {
      "anonymous": false,
      "inputs": [
        {
          "indexed": true,
          "internalType": "address",
          "name": "previousWallet",
          "type": "address"
        },
        {
          "indexed": true,
          "internalType": "address",
          "name": "newWallet",
          "type": "address"
        }
      ],
      "name": "MarketingWalletUpdated",
      "type": "event"
    },
    {
      "anonymous": false,
      "inputs": [
        {
          "indexed": true,
          "internalType": "address",
          "name": "previousOwner",
          "type": "address"
        },
        {
          "indexed": true,
          "internalType": "address",
          "name": "newOwner",
          "type": "address"
        }
      ],
      "name": "OwnershipTransferred",
      "type": "event"
    },
    {
      "anonymous": false,
      "inputs": [
        {
          "indexed": false,
          "internalType": "address",
          "name": "account",
          "type": "address"
        }
      ],
      "name": "Paused",
      "type": "event"
    },
    {
      "anonymous": false,
      "inputs": [
        {
          "indexed": true,
          "internalType": "address",
          "name": "from",
          "type": "address"
        },
        {
          "indexed": false,
          "internalType": "uint256",
          "name": "amount",
          "type": "uint256"
        }
      ],
      "name": "TokensBurned",
      "type": "event"
    },
    {
      "anonymous": false,
      "inputs": [
        {
          "indexed": true,
          "internalType": "address",
          "name": "from",
          "type": "address"
        },
        {
          "indexed": true,
          "internalType": "address",
          "name": "to",
          "type": "address"
        },
        {
          "indexed": false,
          "internalType": "uint256",
          "name": "value",
          "type": "uint256"
        }
      ],
      "name": "Transfer",
      "type": "event"
    },
    {
      "anonymous": false,
      "inputs": [
        {
          "indexed": false,
          "internalType": "address",
          "name": "account",
          "type": "address"
        }
      ],
      "name": "Unpaused",
      "type": "event"
    },
    {
      "inputs": [],
      "name": "BURN_RATE",
      "outputs": [
        {
          "internalType": "uint256",
          "name": "",
          "type": "uint256"
        }
      ],
      "stateMutability": "view",
      "type": "function"
    },
    {
      "inputs": [],
      "name": "MARKETING_RATE",
      "outputs": [
        {
          "internalType": "uint256",
          "name": "",
          "type": "uint256"
        }
      ],
      "stateMutability": "view",
      "type": "function"
    },
    {
      "inputs": [],
      "name": "MAX_SUPPLY",
      "outputs": [
        {
          "internalType": "uint256",
          "name": "",
          "type": "uint256"
        }
      ],
      "stateMutability": "view",
      "type": "function"
    },
    {
      "inputs": [
        {
          "internalType": "address",
          "name": "owner",
          "type": "address"
        },
        {
          "internalType": "address",
          "name": "spender",
          "type": "address"
        }
      ],
      "name": "allowance",
      "outputs": [
        {
          "internalType": "uint256",
          "name": "",
          "type": "uint256"
        }
      ],
      "stateMutability": "view",
      "type": "function"
    },
    {
      "inputs": [
        {
          "internalType": "address",
          "name": "spender",
          "type": "address"
        },
        {
          "internalType": "uint256",
          "name": "amount",
          "type": "uint256"
        }
      ],
      "name": "approve",
      "outputs": [
        {
          "internalType": "bool",
          "name": "",
          "type": "bool"
        }
      ],
      "stateMutability": "nonpayable",
      "type": "function"
    },
    {
      "inputs": [
        {
          "internalType": "address",
          "name": "account",
          "type": "address"
        }
      ],
      "name": "balanceOf",
      "outputs": [
        {
          "internalType": "uint256",
          "name": "",
          "type": "uint256"
        }
      ],
      "stateMutability": "view",
      "type": "function"
    },
    {
      "inputs": [
        {
          "internalType": "uint256",
          "name": "amount",
          "type": "uint256"
        }
      ],
      "name": "burn",
      "outputs": [],
      "stateMutability": "nonpayable",
      "type": "function"
    },
    {
      "inputs": [
        {
          "internalType": "address",
          "name": "account",
          "type": "address"
        },
        {
          "internalType": "uint256",
          "name": "amount",
          "type": "uint256"
        }
      ],
      "name": "burnFrom",
      "outputs": [],
      "stateMutability": "nonpayable",
      "type": "function"
    },
    {
      "inputs": [],
      "name": "decimals",
      "outputs": [
        {
          "internalType": "uint8",
          "name": "",
          "type": "uint8"
        }
      ],
      "stateMutability": "view",
      "type": "function"
    },
    {
      "inputs": [
        {
          "internalType": "address",
          "name": "spender",
          "type": "address"
        },
        {
          "internalType": "uint256",
          "name": "subtractedValue",
          "type": "uint256"
        }
      ],
      "name": "decreaseAllowance",
      "outputs": [
        {
          "internalType": "bool",
          "name": "",
          "type": "bool"
        }
      ],
      "stateMutability": "nonpayable",
      "type": "function"
    },
    {
      "inputs": [
        {
          "internalType": "address",
          "name": "spender",
          "type": "address"
        },
        {
          "internalType": "uint256",
          "name": "addedValue",
          "type": "uint256"
        }
      ],
      "name": "increaseAllowance",
      "outputs": [
        {
          "internalType": "bool",
          "name": "",
          "type": "bool"
        }
      ],
      "stateMutability": "nonpayable",
      "type": "function"
    },
    {
      "inputs": [
        {
          "internalType": "address",
          "name": "",
          "type": "address"
        }
      ],
      "name": "isExcludedFromFees",
      "outputs": [
        {
          "internalType": "bool",
          "name": "",
          "type": "bool"
        }
      ],
      "stateMutability": "view",
      "type": "function"
    },
    {
      "inputs": [],
      "name": "marketingWallet",
      "outputs": [
        {
          "internalType": "address",
          "name": "",
          "type": "address"
        }
      ],
      "stateMutability": "view",
      "type": "function"
    },
    {
      "inputs": [],
      "name": "name",
      "outputs": [
        {
          "internalType": "string",
          "name": "",
          "type": "string"
        }
      ],
      "stateMutability": "view",
      "type": "function"
    },
    {
      "inputs": [],
      "name": "owner",
      "outputs": [
        {
          "internalType": "address",
          "name": "",
          "type": "address"
        }
      ],
      "stateMutability": "view",
      "type": "function"
    },
    {
      "inputs": [],
      "name": "pause",
      "outputs": [],
      "stateMutability": "nonpayable",
      "type": "function"
    },
    {
      "inputs": [],
      "name": "paused",
      "outputs": [
        {
          "internalType": "bool",
          "name": "",
          "type": "bool"
        }
      ],
      "stateMutability": "view",
      "type": "function"
    },
    {
      "inputs": [],
      "name": "renounceOwnership",
      "outputs": [],
      "stateMutability": "nonpayable",
      "type": "function"
    },
    {
      "inputs": [
        {
          "internalType": "address",
          "name": "account",
          "type": "address"
        },
        {
          "internalType": "bool",
          "name": "excluded",
          "type": "bool"
        }
      ],
      "name": "setExcludedFromFees",
      "outputs": [],
      "stateMutability": "nonpayable",
      "type": "function"
    },
    {
      "inputs": [
        {
          "internalType": "address",
          "name": "newWallet",
          "type": "address"
        }
      ],
      "name": "setMarketingWallet",
      "outputs": [],
      "stateMutability": "nonpayable",
      "type": "function"
    },
    {
      "inputs": [],
      "name": "symbol",
      "outputs": [
        {
          "internalType": "string",
          "name": "",
          "type": "string"
        }
      ],
      "stateMutability": "view",
      "type": "function"
    },
    {
      "inputs": [],
      "name": "totalSupply",
      "outputs": [
        {
          "internalType": "uint256",
          "name": "",
          "type": "uint256"
        }
      ],
      "stateMutability": "view",
      "type": "function"
    },
    {
      "inputs": [
        {
          "internalType": "address",
          "name": "to",
          "type": "address"
        },
        {
          "internalType": "uint256",
          "name": "amount",
          "type": "uint256"
        }
      ],
      "name": "transfer",
      "outputs": [
        {
          "internalType": "bool",
          "name": "",
          "type": "bool"
        }
      ],
      "stateMutability": "nonpayable",
      "type": "function"
    },
    {
      "inputs": [
        {
          "internalType": "address",
          "name": "from",
          "type": "address"
        },
        {
          "internalType": "address",
          "name": "to",
          "type": "address"
        },
        {
          "internalType": "uint256",
          "name": "amount",
          "type": "uint256"
        }
      ],
      "name": "transferFrom",
      "outputs": [
        {
          "internalType": "bool",
          "name": "",
          "type": "bool"
        }
      ],
      "stateMutability": "nonpayable",
      "type": "function"
    },
    {
      "inputs": [
        {
          "internalType": "address",
          "name": "newOwner",
          "type": "address"
        }
      ],
      "name": "transferOwnership",
      "outputs": [],
      "stateMutability": "nonpayable",
      "type": "function"
    },
    {
      "inputs": [],
      "name": "unpause",
      "outputs": [],
      "stateMutability": "nonpayable",
      "type": "function"
    }
  ],
  "bytecode": "0x60806040523480156200001157600080fd5b5060405162001bef38038062001bef83398101604081905262000034916200079b565b6040518060400160405280600c81526020016b26b2b6b2a834902a37b5b2b760a11b815250604051806040016040528060048152602001634d45504960e01b815250816003908162000087919062000871565b50600462000096828262000871565b50506005805460ff1916905550620000ae33620001b2565b6001600160a01b0381166200011a5760405162461bcd60e51b815260206004820152602760248201527f4d61726b6574696e672077616c6c65742063616e6e6f74206265207a65726f206044820152666164647265737360c81b60648201526084015b60405180910390fd5b600680546001600160a01b0319166001600160a01b0383161790556200014d336b0103ddcfe187695505e400006200020c565b6001600760006200016b60055461010090046001600160a01b031690565b6001600160a01b0316815260208082019290925260409081016000908120805494151560ff19958616179055308152600790925290208054909116600117905550620009ac565b600580546001600160a01b03838116610100818102610100600160a81b031985161790945560405193909204169182907f8be0079c531659141344cd1fd0a4f28419497f9722a3daafe3b4186f6b6457e090600090a35050565b6001600160a01b038216620002645760405162461bcd60e51b815260206004820152601f60248201527f45524332303a206d696e7420746f20746865207a65726f206164647265737300604482015260640162000111565b6200027260008383620002da565b806002600082825462000286919062000953565b90915550506001600160a01b0382166000818152602081815260408083208054860190555184815260008051602062001bcf833981519152910160405180910390a3620002d66000838362000334565b5050565b60055460ff16156200032f5760405162461bcd60e51b815260206004820152601b60248201527f546f6b656e207472616e73666572207768696c65207061757365640000000000604482015260640162000111565b505050565b6001600160a01b03831660009081526007602052604090205460ff16806200037457506001600160a01b03821660009081526007602052604090205460ff165b806200038757506001600160a01b038316155b806200039a57506001600160a01b038216155b15620003a557505050565b6000612710620003b760c8846200096f565b620003c3919062000989565b90506000612710620003d76064856200096f565b620003e3919062000989565b905081156200043d57620003f88483620004ab565b836001600160a01b03167ffd38818f5291bf0bb3a2a48aadc06ba8757865d1dabd804585338aab3009dcb6836040516200043491815260200190565b60405180910390a25b8015620004a4576006546200045e9085906001600160a01b031683620005e7565b6006546040518281526001600160a01b03918216918616907fb84f61d5d48b148e786f296c5d74cd610701b293f50b2fbc597842deeecc77439060200160405180910390a35b5050505050565b6001600160a01b0382166200050d5760405162461bcd60e51b815260206004820152602160248201527f45524332303a206275726e2066726f6d20746865207a65726f206164647265736044820152607360f81b606482015260840162000111565b6200051b82600083620002da565b6001600160a01b03821660009081526020819052604090205481811015620005915760405162461bcd60e51b815260206004820152602260248201527f45524332303a206275726e20616d6f756e7420657863656564732062616c616e604482015261636560f01b606482015260840162000111565b6001600160a01b03831660008181526020818152604080832086860390556002805487900390555185815291929160008051602062001bcf833981519152910160405180910390a36200032f8360008462000334565b6001600160a01b0383166200064d5760405162461bcd60e51b815260206004820152602560248201527f45524332303a207472616e736665722066726f6d20746865207a65726f206164604482015264647265737360d81b606482015260840162000111565b6001600160a01b038216620006b15760405162461bcd60e51b815260206004820152602360248201527f45524332303a207472616e7366657220746f20746865207a65726f206164647260448201526265737360e81b606482015260840162000111565b620006be838383620002da565b6001600160a01b03831660009081526020819052604090205481811015620007385760405162461bcd60e51b815260206004820152602660248201527f45524332303a207472616e7366657220616d6f756e7420657863656564732062604482015265616c616e636560d01b606482015260840162000111565b6001600160a01b038481166000818152602081815260408083208787039055938716808352918490208054870190559251858152909260008051602062001bcf833981519152910160405180910390a36200079584848462000334565b50505050565b600060208284031215620007ae57600080fd5b81516001600160a01b0381168114620007c657600080fd5b9392505050565b634e487b7160e01b600052604160045260246000fd5b600181811c90821680620007f857607f821691505b6020821081036200081957634e487b7160e01b600052602260045260246000fd5b50919050565b601f8211156200032f57600081815260208120601f850160051c81016020861015620008485750805b601f850160051c820191505b81811015620008695782815560010162000854565b505050505050565b81516001600160401b038111156200088d576200088d620007cd565b620008a5816200089e8454620007e3565b846200081f565b602080601f831160018114620008dd5760008415620008c45750858301515b600019600386901b1c1916600185901b17855562000869565b600085815260208120601f198616915b828110156200090e57888601518255948401946001909101908401620008ed565b50858210156200092d5787850151600019600388901b60f8161c191681555b5050505050600190811b01905550565b634e487b7160e01b600052601160045260246000fd5b808201808211156200096957620009696200093d565b92915050565b80820281158282048414176200096957620009696200093d565b600082620009a757634e487b7160e01b600052601260045260246000fd5b500490565b61121380620009bc6000396000f3fe608060405234801561001057600080fd5b506004361061018e5760003560e01c80635d098b38116100de5780638da5cb5b11610097578063a9059cbb11610071578063a9059cbb1461034f578063dd62ed3e14610362578063f2fde38b14610375578063f846a8851461038857600080fd5b80638da5cb5b1461031e57806395d89b4114610334578063a457c2d71461033c57600080fd5b80635d098b381461029457806370a08231146102a7578063715018a6146102d057806375f0a874146102d857806379cc6790146103035780638456cb591461031657600080fd5b806332cb6b0c1161014b57806342966c681161012557806342966c68146102405780634fbee19314610253578063590ffdce146102765780635c975abb1461028957600080fd5b806332cb6b0c1461021057806339509351146102235780633f4ba83a1461023657600080fd5b806306fdde0314610193578063095ea7b3146101b157806318160ddd146101d457806323b872dd146101e657806328e7cef5146101f9578063313ce56714610201575b600080fd5b61019b610390565b6040516101a89190610fc7565b60405180910390f35b6101c46101bf366004611031565b610422565b60405190151581526020016101a8565b6002545b6040519081526020016101a8565b6101c46101f436600461105b565b61043c565b6101d8606481565b604051601281526020016101a8565b6101d86b0103ddcfe187695505e4000081565b6101c4610231366004611031565b610460565b61023e610482565b005b61023e61024e366004611097565b610494565b6101c46102613660046110b0565b60076020526000908152604090205460ff1681565b61023e6102843660046110d2565b6104a1565b60055460ff166101c4565b61023e6102a23660046110b0565b610563565b6101d86102b53660046110b0565b6001600160a01b031660009081526020819052604090205490565b61023e610627565b6006546102eb906001600160a01b031681565b6040516001600160a01b0390911681526020016101a8565b61023e610311366004611031565b610639565b61023e610652565b60055461010090046001600160a01b03166102eb565b61019b610662565b6101c461034a366004611031565b610671565b6101c461035d366004611031565b6106ec565b6101d861037036600461110e565b6106fa565b61023e6103833660046110b0565b610725565b6101d860c881565b60606003805461039f90611141565b80601f01602080910402602001604051908101604052809291908181526020018280546103cb90611141565b80156104185780601f106103ed57610100808354040283529160200191610418565b820191906000526020600020905b8154815290600101906020018083116103fb57829003601f168201915b5050505050905090565b60003361043081858561079b565b60019150505b92915050565b60003361044a8582856108bf565b610455858585610939565b506001949350505050565b60003361043081858561047383836106fa565b61047d9190611191565b61079b565b61048a610aee565b610492610b4e565b565b61049e3382610ba0565b50565b6104a9610aee565b6001600160a01b0382166105045760405162461bcd60e51b815260206004820152601760248201527f43616e6e6f7420736574207a65726f206164647265737300000000000000000060448201526064015b60405180910390fd5b6001600160a01b038216600081815260076020908152604091829020805460ff191685151590811790915591519182527f3499bfcf9673677ba552f3fe2ea274ec7e6246da31c3c87e115b45a9b0db2efb910160405180910390a25050565b61056b610aee565b6001600160a01b0381166105cb5760405162461bcd60e51b815260206004820152602160248201527f4e65772077616c6c65742063616e6e6f74206265207a65726f206164647265736044820152607360f81b60648201526084016104fb565b6006546040516001600160a01b038084169216907f8616c7a330e3cf61290821331585511f1e2778171e2b005fb5ec60cfe874dc6790600090a3600680546001600160a01b0319166001600160a01b0392909216919091179055565b61062f610aee565b6104926000610cea565b6106448233836108bf565b61064e8282610ba0565b5050565b61065a610aee565b610492610d44565b60606004805461039f90611141565b6000338161067f82866106fa565b9050838110156106df5760405162461bcd60e51b815260206004820152602560248201527f45524332303a2064656372656173656420616c6c6f77616e63652062656c6f77604482015264207a65726f60d81b60648201526084016104fb565b610455828686840361079b565b600033610430818585610939565b6001600160a01b03918216600090815260016020908152604080832093909416825291909152205490565b61072d610aee565b6001600160a01b0381166107925760405162461bcd60e51b815260206004820152602660248201527f4f776e61626c653a206e6577206f776e657220697320746865207a65726f206160448201526564647265737360d01b60648201526084016104fb565b61049e81610cea565b6001600160a01b0383166107fd5760405162461bcd60e51b8152602060048201526024808201527f45524332303a20617070726f76652066726f6d20746865207a65726f206164646044820152637265737360e01b60648201526084016104fb565b6001600160a01b03821661085e5760405162461bcd60e51b815260206004820152602260248201527f45524332303a20617070726f766520746f20746865207a65726f206164647265604482015261737360f01b60648201526084016104fb565b6001600160a01b0383811660008181526001602090815260408083209487168084529482529182902085905590518481527f8c5be1e5ebec7d5bd14f71427d1e84f3dd0314c0f7b2291e5b200ac8c7c3b925910160405180910390a3505050565b60006108cb84846106fa565b9050600019811461093357818110156109265760405162461bcd60e51b815260206004820152601d60248201527f45524332303a20696e73756666696369656e7420616c6c6f77616e636500000060448201526064016104fb565b610933848484840361079b565b50505050565b6001600160a01b03831661099d5760405162461bcd60e51b815260206004820152602560248201527f45524332303a207472616e736665722066726f6d20746865207a65726f206164604482015264647265737360d81b60648201526084016104fb565b6001600160a01b0382166109ff5760405162461bcd60e51b815260206004820152602360248201527f45524332303a207472616e7366657220746f20746865207a65726f206164647260448201526265737360e81b60648201526084016104fb565b610a0a838383610d81565b6001600160a01b03831660009081526020819052604090205481811015610a825760405162461bcd60e51b815260206004820152602660248201527f45524332303a207472616e7366657220616d6f756e7420657863656564732062604482015265616c616e636560d01b60648201526084016104fb565b6001600160a01b03848116600081815260208181526040808320878703905593871680835291849020805487019055925185815290927fddf252ad1be2c89b69c2b068fc378daa952ba7f163c4a11628f55a4df523b3ef910160405180910390a3610933848484610dd4565b6005546001600160a01b036101009091041633146104925760405162461bcd60e51b815260206004820181905260248201527f4f776e61626c653a2063616c6c6572206973206e6f7420746865206f776e657260448201526064016104fb565b610b56610f38565b6005805460ff191690557f5db9ee0a495bf2e6ff9c91a7834c1ba4fdd244a5e8aa4e537bd38aeae4b073aa335b6040516001600160a01b03909116815260200160405180910390a1565b6001600160a01b038216610c005760405162461bcd60e51b815260206004820152602160248201527f45524332303a206275726e2066726f6d20746865207a65726f206164647265736044820152607360f81b60648201526084016104fb565b610c0c82600083610d81565b6001600160a01b03821660009081526020819052604090205481811015610c805760405162461bcd60e51b815260206004820152602260248201527f45524332303a206275726e20616d6f756e7420657863656564732062616c616e604482015261636560f01b60648201526084016104fb565b6001600160a01b0383166000818152602081815260408083208686039055600280548790039055518581529192917fddf252ad1be2c89b69c2b068fc378daa952ba7f163c4a11628f55a4df523b3ef910160405180910390a3610ce583600084610dd4565b505050565b600580546001600160a01b03838116610100818102610100600160a81b031985161790945560405193909204169182907f8be0079c531659141344cd1fd0a4f28419497f9722a3daafe3b4186f6b6457e090600090a35050565b610d4c610f81565b6005805460ff191660011790557f62e78cea01bee320cd4e420270b5ea74000d11b0c9f74754ebdbfc544b05a258610b833390565b60055460ff1615610ce55760405162461bcd60e51b815260206004820152601b60248201527f546f6b656e207472616e73666572207768696c6520706175736564000000000060448201526064016104fb565b6001600160a01b03831660009081526007602052604090205460ff1680610e1357506001600160a01b03821660009081526007602052604090205460ff165b80610e2557506001600160a01b038316155b80610e3757506001600160a01b038216155b15610e4157505050565b6000612710610e5160c8846111a4565b610e5b91906111bb565b90506000612710610e6d6064856111a4565b610e7791906111bb565b90508115610ecd57610e898483610ba0565b836001600160a01b03167ffd38818f5291bf0bb3a2a48aadc06ba8757865d1dabd804585338aab3009dcb683604051610ec491815260200190565b60405180910390a25b8015610f3157600654610eeb9085906001600160a01b031683610939565b6006546040518281526001600160a01b03918216918616907fb84f61d5d48b148e786f296c5d74cd610701b293f50b2fbc597842deeecc77439060200160405180910390a35b5050505050565b60055460ff166104925760405162461bcd60e51b815260206004820152601460248201527314185d5cd8589b194e881b9bdd081c185d5cd95960621b60448201526064016104fb565b60055460ff16156104925760405162461bcd60e51b815260206004820152601060248201526f14185d5cd8589b194e881c185d5cd95960821b60448201526064016104fb565b600060208083528351808285015260005b81811015610ff457858101830151858201604001528201610fd8565b506000604082860101526040601f19601f8301168501019250505092915050565b80356001600160a01b038116811461102c57600080fd5b919050565b6000806040838503121561104457600080fd5b61104d83611015565b946020939093013593505050565b60008060006060848603121561107057600080fd5b61107984611015565b925061108760208501611015565b9150604084013590509250925092565b6000602082840312156110a957600080fd5b5035919050565b6000602082840312156110c257600080fd5b6110cb82611015565b9392505050565b600080604083850312156110e557600080fd5b6110ee83611015565b91506020830135801515811461110357600080fd5b809150509250929050565b6000806040838503121561112157600080fd5b61112a83611015565b915061113860208401611015565b90509250929050565b600181811c9082168061115557607f821691505b60208210810361117557634e487b7160e01b600052602260045260246000fd5b50919050565b634e487b7160e01b600052601160045260246000fd5b808201808211156104365761043661117b565b80820281158282048414176104365761043661117b565b6000826111d857634e487b7160e01b600052601260045260246000fd5b50049056fea2646970667358221220e91050122d215124334930f36b9684d337a4b7007021e365c2535a11859b4ab864736f6c63430008130033ddf252ad1be2c89b69c2b068fc378daa952ba7f163c4a11628f55a4df523b3ef",
  "linkReferences": {},
  "deployedLinkReferences": {}
}